{
  "contractName": "NftTokenMint",
  "abi": [
    {
      "inputs": [],
      "stateMutability": "nonpayable",
      "type": "constructor"
    },
    {
      "anonymous": false,
      "inputs": [
        {
          "indexed": false,
          "internalType": "address",
          "name": "from",
          "type": "address"
        },
        {
          "indexed": false,
          "internalType": "address",
          "name": "to",
          "type": "address"
        },
        {
          "indexed": false,
          "internalType": "uint256",
          "name": "tokenId",
          "type": "uint256"
        }
      ],
      "name": "Sent",
      "type": "event"
    },
    {
      "inputs": [],
      "name": "minter",
      "outputs": [
        {
          "internalType": "address",
          "name": "",
          "type": "address"
        }
      ],
      "stateMutability": "view",
      "type": "function"
    },
    {
      "inputs": [
        {
          "internalType": "address",
          "name": "",
          "type": "address"
        }
      ],
      "name": "ownedTokensBalance",
      "outputs": [
        {
          "internalType": "uint256",
          "name": "",
          "type": "uint256"
        }
      ],
      "stateMutability": "view",
      "type": "function"
    },
    {
      "inputs": [
        {
          "internalType": "uint256",
          "name": "",
          "type": "uint256"
        }
      ],
      "name": "tokenOwner",
      "outputs": [
        {
          "internalType": "address",
          "name": "",
          "type": "address"
        }
      ],
      "stateMutability": "view",
      "type": "function"
    },
    {
      "inputs": [
        {
          "internalType": "uint256",
          "name": "tokenId",
          "type": "uint256"
        }
      ],
      "name": "_exists",
      "outputs": [
        {
          "internalType": "bool",
          "name": "",
          "type": "bool"
        }
      ],
      "stateMutability": "view",
      "type": "function"
    },
    {
      "inputs": [
        {
          "internalType": "uint256",
          "name": "tokenId",
          "type": "uint256"
        }
      ],
      "name": "mint",
      "outputs": [],
      "stateMutability": "nonpayable",
      "type": "function"
    },
    {
      "inputs": [
        {
          "internalType": "address",
          "name": "receiver",
          "type": "address"
        },
        {
          "internalType": "uint256",
          "name": "tokenId",
          "type": "uint256"
        }
      ],
      "name": "send",
      "outputs": [],
      "stateMutability": "nonpayable",
      "type": "function"
    }
  ],
  "bytecode": "0x608060405234801561001057600080fd5b50336000806101000a81548173ffffffffffffffffffffffffffffffffffffffff021916908373ffffffffffffffffffffffffffffffffffffffff160217905550610ad2806100606000396000f3fe608060405234801561001057600080fd5b50600436106100625760003560e01c806307546172146100675780631caaa48714610085578063a0712d68146100b5578063b600fbd7146100d1578063d0679d3414610101578063f8e76cc01461011d575b600080fd5b61006f61014d565b60405161007c9190610691565b60405180910390f35b61009f600480360381019061009a91906106e7565b610171565b6040516100ac9190610691565b60405180910390f35b6100cf60048036038101906100ca91906106e7565b6101a4565b005b6100eb60048036038101906100e69190610740565b610327565b6040516100f8919061077c565b60405180910390f35b61011b60048036038101906101169190610797565b61033f565b005b610137600480360381019061013291906106e7565b61052d565b60405161014491906107f2565b60405180910390f35b60008054906101000a900473ffffffffffffffffffffffffffffffffffffffff1681565b60016020528060005260406000206000915054906101000a900473ffffffffffffffffffffffffffffffffffffffff1681565b6101ad8161052d565b156101ed576040517f08c379a00000000000000000000000000000000000000000000000000000000081526004016101e49061086a565b60405180910390fd5b60008054906101000a900473ffffffffffffffffffffffffffffffffffffffff1673ffffffffffffffffffffffffffffffffffffffff163373ffffffffffffffffffffffffffffffffffffffff161461027b576040517f08c379a0000000000000000000000000000000000000000000000000000000008152600401610272906108d6565b60405180910390fd5b336001600083815260200190815260200160002060006101000a81548173ffffffffffffffffffffffffffffffffffffffff021916908373ffffffffffffffffffffffffffffffffffffffff1602179055506001600260003373ffffffffffffffffffffffffffffffffffffffff1673ffffffffffffffffffffffffffffffffffffffff168152602001908152602001600020600082825461031d9190610925565b9250508190555050565b60026020528060005260406000206000915090505481565b3373ffffffffffffffffffffffffffffffffffffffff1661035f8261059f565b73ffffffffffffffffffffffffffffffffffffffff161461037f57600080fd5b600073ffffffffffffffffffffffffffffffffffffffff168273ffffffffffffffffffffffffffffffffffffffff16036103ee576040517f08c379a00000000000000000000000000000000000000000000000000000000081526004016103e5906109a5565b60405180910390fd5b816001600083815260200190815260200160002060006101000a81548173ffffffffffffffffffffffffffffffffffffffff021916908373ffffffffffffffffffffffffffffffffffffffff1602179055506001600260008473ffffffffffffffffffffffffffffffffffffffff1673ffffffffffffffffffffffffffffffffffffffff16815260200190815260200160002060008282546104909190610925565b925050819055506001600260003373ffffffffffffffffffffffffffffffffffffffff1673ffffffffffffffffffffffffffffffffffffffff16815260200190815260200160002060008282546104e791906109c5565b925050819055507f3990db2d31862302a685e8086b5755072a6e2b5b780af1ee81ece35ee3cd3345338383604051610521939291906109f9565b60405180910390a15050565b6000806001600084815260200190815260200160002060009054906101000a900473ffffffffffffffffffffffffffffffffffffffff169050600073ffffffffffffffffffffffffffffffffffffffff168173ffffffffffffffffffffffffffffffffffffffff161415915050919050565b6000806001600084815260200190815260200160002060009054906101000a900473ffffffffffffffffffffffffffffffffffffffff169050600073ffffffffffffffffffffffffffffffffffffffff168173ffffffffffffffffffffffffffffffffffffffff1603610647576040517f08c379a000000000000000000000000000000000000000000000000000000000815260040161063e90610a7c565b60405180910390fd5b80915050919050565b600073ffffffffffffffffffffffffffffffffffffffff82169050919050565b600061067b82610650565b9050919050565b61068b81610670565b82525050565b60006020820190506106a66000830184610682565b92915050565b600080fd5b6000819050919050565b6106c4816106b1565b81146106cf57600080fd5b50565b6000813590506106e1816106bb565b92915050565b6000602082840312156106fd576106fc6106ac565b5b600061070b848285016106d2565b91505092915050565b61071d81610670565b811461072857600080fd5b50565b60008135905061073a81610714565b92915050565b600060208284031215610756576107556106ac565b5b60006107648482850161072b565b91505092915050565b610776816106b1565b82525050565b6000602082019050610791600083018461076d565b92915050565b600080604083850312156107ae576107ad6106ac565b5b60006107bc8582860161072b565b92505060206107cd858286016106d2565b9150509250929050565b60008115159050919050565b6107ec816107d7565b82525050565b600060208201905061080760008301846107e3565b92915050565b600082825260208201905092915050565b7f4552524f523a20546f6b656e20616c7265616479206578697374210000000000600082015250565b6000610854601b8361080d565b915061085f8261081e565b602082019050919050565b6000602082019050818103600083015261088381610847565b9050919050565b7f4552524f523a20596f7520617265206e6f742061206d696e7465722100000000600082015250565b60006108c0601c8361080d565b91506108cb8261088a565b602082019050919050565b600060208201905081810360008301526108ef816108b3565b9050919050565b7f4e487b7100000000000000000000000000000000000000000000000000000000600052601160045260246000fd5b6000610930826106b1565b915061093b836106b1565b9250828201905080821115610953576109526108f6565b5b92915050565b7f4552524f523a2057726f6e672072656365697665722100000000000000000000600082015250565b600061098f60168361080d565b915061099a82610959565b602082019050919050565b600060208201905081810360008301526109be81610982565b9050919050565b60006109d0826106b1565b91506109db836106b1565b92508282039050818111156109f3576109f26108f6565b5b92915050565b6000606082019050610a0e6000830186610682565b610a1b6020830185610682565b610a28604083018461076d565b949350505050565b7f4552524f523a20496e76616c696420746f6b656e210000000000000000000000600082015250565b6000610a6660158361080d565b9150610a7182610a30565b602082019050919050565b60006020820190508181036000830152610a9581610a59565b905091905056fea2646970667358221220142ef4921ace41b11f7c6ce89ac17c26f02ef5cd787bc73dd1b6081de128057d64736f6c63430008110033",
  "immutableReferences": {},
  "source": "//SPDX-License-Identifier: UNLICENSED\r\npragma solidity ^0.8.7;\r\n\r\ncontract NftTokenMint {\r\n    address public minter;\r\n\r\n    //Mappings\r\n    // TokenId to Address\r\n    mapping(uint256=>address) public tokenOwner;\r\n\r\n    //Address to NFT Total\r\n    mapping(address=>uint256) public ownedTokensBalance;\r\n\r\n    //Events\r\n    event Sent(address from, address to, uint256 tokenId);\r\n\r\n    //Setting up the contract creator has a unique minter;\r\n    constructor() {\r\n        minter = msg.sender;\r\n    }\r\n\r\n    // Aux function to control if token already exists in mapping of this contract.\r\n    function _exists(uint256 tokenId) public view returns(bool) {\r\n        address owner = tokenOwner[tokenId];\r\n\r\n        return owner != address(0);\r\n    }\r\n\r\n    // Function to mint a NFT anexing a owner to this token and adding a balance to address sender\r\n    function mint(uint256 tokenId) public {\r\n        require(!_exists(tokenId), \"ERROR: Token already exist!\");\r\n        require(msg.sender == minter, \"ERROR: You are not a minter!\");\r\n\r\n        tokenOwner[tokenId] = msg.sender;\r\n        ownedTokensBalance[msg.sender] += 1;\r\n\r\n    }\r\n\r\n    // Function to check addres of token owner\r\n    function _ownerOf(uint256 tokenId) internal view returns(address) {\r\n        address owner = tokenOwner[tokenId];\r\n        require(owner != address(0), \"ERROR: Invalid token!\");\r\n\r\n        return owner;\r\n    }\r\n\r\n    // Functino to send a NFT to other owner\r\n    function send(address receiver, uint256 tokenId) public {\r\n        require(_ownerOf(tokenId) == msg.sender);\r\n        require(receiver != address(0), \"ERROR: Wrong receiver!\");\r\n\r\n        tokenOwner[tokenId] = receiver;\r\n        ownedTokensBalance[receiver] += 1;\r\n        ownedTokensBalance[msg.sender] -= 1;\r\n\r\n        emit Sent(msg.sender, receiver, tokenId);\r\n    }\r\n\r\n}",
  "sourcePath": "C:\\Users\\carol\\OneDrive\\rea de Trabalho\\Jailton\\Sample NFT mint\\contracts\\NftTokenMint.sol",
  "compiler": {
    "name": "solc",
    "version": "0.8.17+commit.8df45f5f.Emscripten.clang"
  },
  "schemaVersion": "3.4.11",
  "updatedAt": "2022-12-26T20:17:10.873Z",
  "devdoc": {
    "kind": "dev",
    "methods": {},
    "version": 1
  },
  "userdoc": {
    "kind": "user",
    "methods": {},
    "version": 1
  }
}